{
  "contractName": "MarketPlace",
  "abi": [
    {
      "constant": false,
      "inputs": [
        {
          "name": "_name",
          "type": "string"
        },
        {
          "name": "_password",
          "type": "string"
        }
      ],
      "name": "registerUser",
      "outputs": [],
      "payable": false,
      "stateMutability": "nonpayable",
      "type": "function"
    },
    {
      "constant": false,
      "inputs": [
        {
          "name": "_name",
          "type": "string"
        },
        {
          "name": "_password",
          "type": "string"
        }
      ],
      "name": "loginUser",
      "outputs": [],
      "payable": false,
      "stateMutability": "nonpayable",
      "type": "function"
    },
    {
      "constant": false,
      "inputs": [
        {
          "name": "_queryID",
          "type": "bytes32"
        },
        {
          "name": "_result",
          "type": "string"
        }
      ],
      "name": "__callback",
      "outputs": [],
      "payable": false,
      "stateMutability": "nonpayable",
      "type": "function"
    },
    {
      "constant": true,
      "inputs": [],
      "name": "coinbaseAPI",
      "outputs": [
        {
          "name": "",
          "type": "string"
        }
      ],
      "payable": false,
      "stateMutability": "view",
      "type": "function"
    },
    {
      "constant": true,
      "inputs": [],
      "name": "ETHUSD",
      "outputs": [
        {
          "name": "",
          "type": "string"
        }
      ],
      "payable": false,
      "stateMutability": "view",
      "type": "function"
    },
    {
      "constant": false,
      "inputs": [],
      "name": "logoutUser",
      "outputs": [],
      "payable": false,
      "stateMutability": "nonpayable",
      "type": "function"
    },
    {
      "constant": true,
      "inputs": [],
      "name": "totalOnlineUsers",
      "outputs": [
        {
          "name": "",
          "type": "uint256"
        }
      ],
      "payable": false,
      "stateMutability": "view",
      "type": "function"
    },
    {
      "inputs": [],
      "payable": false,
      "stateMutability": "nonpayable",
      "type": "constructor"
    },
    {
      "anonymous": false,
      "inputs": [
        {
          "indexed": false,
          "name": "queryID",
          "type": "bytes32"
        },
        {
          "indexed": false,
          "name": "timestamp",
          "type": "uint256"
        },
        {
          "indexed": false,
          "name": "ETHPairing",
          "type": "string"
        }
      ],
      "name": "ETHParingUpdateLog",
      "type": "event"
    },
    {
      "anonymous": false,
      "inputs": [
        {
          "indexed": false,
          "name": "oraclizeLog",
          "type": "string"
        }
      ],
      "name": "LogNewOraclizeQuery",
      "type": "event"
    }
  ],
  "bytecode": "0x6060604052606060405190810160405280602e81526020017f68747470733a2f2f6170692e636f696e626173652e636f6d2f76322f7072696381526020017f65732f4554482d5553442f6275790000000000000000000000000000000000008152506005908051906020019062000078929190620000cc565b5034156200008557600080fd5b33600860006101000a81548173ffffffffffffffffffffffffffffffffffffffff021916908373ffffffffffffffffffffffffffffffffffffffff1602179055506200017b565b828054600181600116156101000203166002900490600052602060002090601f016020900481019282601f106200010f57805160ff191683800117855562000140565b8280016001018555821562000140579182015b828111156200013f57825182559160200191906001019062000122565b5b5090506200014f919062000153565b5090565b6200017891905b80821115620001745760008160009055506001016200015a565b5090565b90565b612043806200018b6000396000f300606060405260043610610083576000357c0100000000000000000000000000000000000000000000000000000000900463ffffffff1680631d2e4afd1461008857806322ce12e51461012857806327dc297e146101c857806342b0d17a1461023257806373db0844146102c0578063d8f145d21461034e578063ec94000e14610363575b600080fd5b341561009357600080fd5b610126600480803590602001908201803590602001908080601f0160208091040260200160405190810160405280939291908181526020018383808284378201915050505050509190803590602001908201803590602001908080601f0160208091040260200160405190810160405280939291908181526020018383808284378201915050505050509190505061038c565b005b341561013357600080fd5b6101c6600480803590602001908201803590602001908080601f0160208091040260200160405190810160405280939291908181526020018383808284378201915050505050509190803590602001908201803590602001908080601f016020809104026020016040519081016040528093929190818152602001838380828437820191505050505050919050506105d2565b005b34156101d357600080fd5b61023060048080356000191690602001909190803590602001908201803590602001908080601f016020809104026020016040519081016040528093929190818152602001838380828437820191505050505050919050506106bd565b005b341561023d57600080fd5b6102456107bf565b6040518080602001828103825283818151815260200191508051906020019080838360005b8381101561028557808201518184015260208101905061026a565b50505050905090810190601f1680156102b25780820380516001836020036101000a031916815260200191505b509250505060405180910390f35b34156102cb57600080fd5b6102d361085d565b6040518080602001828103825283818151815260200191508051906020019080838360005b838110156103135780820151818401526020810190506102f8565b50505050905090810190601f1680156103405780820380516001836020036101000a031916815260200191505b509250505060405180910390f35b341561035957600080fd5b6103616108fb565b005b341561036e57600080fd5b610376610a42565b6040518082815260200191505060405180910390f35b600c60003373ffffffffffffffffffffffffffffffffffffffff1673ffffffffffffffffffffffffffffffffffffffff16815260200190815260200160002060000160009054906101000a900460ff161515156103e857600080fd5b60a0604051908101604052806001151581526020018381526020016001600281111561041057fe5b815260200160006040518059106104245750595b9080825280602002602001820160405250815260200182846040518083805190602001908083835b602083101515610471578051825260208201915060208101905060208303925061044c565b6001836020036101000a03801982511681845116808217855250505050505090500182805190602001908083835b6020831015156104c4578051825260208201915060208101905060208303925061049f565b6001836020036101000a03801982511681845116808217855250505050505090500192505050604051809103902060001916815250600c60003373ffffffffffffffffffffffffffffffffffffffff1673ffffffffffffffffffffffffffffffffffffffff16815260200190815260200160002060008201518160000160006101000a81548160ff0219169083151502179055506020820151816001019080519060200190610574929190611ea5565b5060408201518160020160006101000a81548160ff0219169083600281111561059957fe5b021790555060608201518160030190805190602001906105ba929190611f25565b50608082015181600401906000191690559050505050565b600c60003373ffffffffffffffffffffffffffffffffffffffff1673ffffffffffffffffffffffffffffffffffffffff16815260200190815260200160002060000160009054906101000a900460ff16151561062d57600080fd5b610638338383610a48565b151561064357600080fd5b6000600c60003373ffffffffffffffffffffffffffffffffffffffff1673ffffffffffffffffffffffffffffffffffffffff16815260200190815260200160002060020160006101000a81548160ff021916908360028111156106a257fe5b02179055506007600081548092919060010191905055505050565b6106c5610b57565b73ffffffffffffffffffffffffffffffffffffffff163373ffffffffffffffffffffffffffffffffffffffff16141515156106ff57600080fd5b7fd341831835fde6824cb14232eed4b6e7595da275d86e9b16a483b46d302542cf82428360405180846000191660001916815260200183815260200180602001828103825283818151815260200191508051906020019080838360005b8381101561077757808201518184015260208101905061075c565b50505050905090810190601f1680156107a45780820380516001836020036101000a031916815260200191505b5094505050505060405180910390a16107bb610e6d565b5050565b60058054600181600116156101000203166002900480601f0160208091040260200160405190810160405280929190818152602001828054600181600116156101000203166002900480156108555780601f1061082a57610100808354040283529160200191610855565b820191906000526020600020905b81548152906001019060200180831161083857829003601f168201915b505050505081565b60068054600181600116156101000203166002900480601f0160208091040260200160405190810160405280929190818152602001828054600181600116156101000203166002900480156108f35780601f106108c8576101008083540402835291602001916108f3565b820191906000526020600020905b8154815290600101906020018083116108d657829003601f168201915b505050505081565b6000600c60003373ffffffffffffffffffffffffffffffffffffffff1673ffffffffffffffffffffffffffffffffffffffff16815260200190815260200160002060000160009054906101000a900460ff16151561095857600080fd5b338073ffffffffffffffffffffffffffffffffffffffff163373ffffffffffffffffffffffffffffffffffffffff1614151561099357600080fd5b600c60003373ffffffffffffffffffffffffffffffffffffffff1673ffffffffffffffffffffffffffffffffffffffff1681526020019081526020016000209150600160028111156109e157fe5b8260020160009054906101000a900460ff1660028111156109fe57fe5b1415610a3e5760008260020160006101000a81548160ff02191690836002811115610a2557fe5b0217905550600760008154809291906001900391905055505b5050565b60075481565b600081836040518083805190602001908083835b602083101515610a815780518252602082019150602081019050602083039250610a5c565b6001836020036101000a03801982511681845116808217855250505050505090500182805190602001908083835b602083101515610ad45780518252602082019150602081019050602083039250610aaf565b6001836020036101000a03801982511681845116808217855250505050505090500192505050604051809103902060001916600c60008673ffffffffffffffffffffffffffffffffffffffff1673ffffffffffffffffffffffffffffffffffffffff16815260200190815260200160002060040154600019161490509392505050565b6000806000809054906101000a900473ffffffffffffffffffffffffffffffffffffffff1673ffffffffffffffffffffffffffffffffffffffff161480610bc757506000610bc56000809054906101000a900473ffffffffffffffffffffffffffffffffffffffff16611116565b145b15610bd857610bd66000611121565b505b6000809054906101000a900473ffffffffffffffffffffffffffffffffffffffff1673ffffffffffffffffffffffffffffffffffffffff166338cc48316000604051602001526040518163ffffffff167c0100000000000000000000000000000000000000000000000000000000028152600401602060405180830381600087803b1515610c6557600080fd5b6102c65a03f11515610c7657600080fd5b5050506040518051905073ffffffffffffffffffffffffffffffffffffffff16600160009054906101000a900473ffffffffffffffffffffffffffffffffffffffff1673ffffffffffffffffffffffffffffffffffffffff16141515610dbf576000809054906101000a900473ffffffffffffffffffffffffffffffffffffffff1673ffffffffffffffffffffffffffffffffffffffff166338cc48316000604051602001526040518163ffffffff167c0100000000000000000000000000000000000000000000000000000000028152600401602060405180830381600087803b1515610d6357600080fd5b6102c65a03f11515610d7457600080fd5b50505060405180519050600160006101000a81548173ffffffffffffffffffffffffffffffffffffffff021916908373ffffffffffffffffffffffffffffffffffffffff1602179055505b600160009054906101000a900473ffffffffffffffffffffffffffffffffffffffff1673ffffffffffffffffffffffffffffffffffffffff1663c281d19e6000604051602001526040518163ffffffff167c0100000000000000000000000000000000000000000000000000000000028152600401602060405180830381600087803b1515610e4d57600080fd5b6102c65a03f11515610e5e57600080fd5b50505060405180519050905090565b3073ffffffffffffffffffffffffffffffffffffffff1631610ec36040805190810160405280600381526020017f55524c0000000000000000000000000000000000000000000000000000000000815250611132565b1115610f82577f621c2856e3b87f81235f8ac8a22bbb40a0142961960710d00b2b6c380902b57e60405180806020018281038252604b8152602001807f4f7261636c697a6520717565727920776173204e4f542073656e742c20706c6581526020017f6173652061646420736f6d652045544820746f20636f76657220666f7220746881526020017f652071756572792066656500000000000000000000000000000000000000000081525060600191505060405180910390a1611114565b7f621c2856e3b87f81235f8ac8a22bbb40a0142961960710d00b2b6c380902b57e60405180806020018281038252605b8152602001807f4150492063616c6c2073656e742c20617320736f6f6e20617320746865206c6181526020017f737465737420707269636520686173206265656e20757064617465642074686581526020017f20636f6e74726163742077696c6c2062652064657374726f796564000000000081525060600191505060405180910390a1611112612a306040805190810160405280600381526020017f55524c000000000000000000000000000000000000000000000000000000000081525060058054600181600116156101000203166002900480601f0160208091040260200160405190810160405280929190818152602001828054600181600116156101000203166002900480156111085780601f106110dd57610100808354040283529160200191611108565b820191906000526020600020905b8154815290600101906020018083116110eb57829003601f168201915b50505050506114ba565b505b565b6000813b9050919050565b600061112b6119fc565b9050919050565b6000806000809054906101000a900473ffffffffffffffffffffffffffffffffffffffff1673ffffffffffffffffffffffffffffffffffffffff1614806111a2575060006111a06000809054906101000a900473ffffffffffffffffffffffffffffffffffffffff16611116565b145b156111b3576111b16000611121565b505b6000809054906101000a900473ffffffffffffffffffffffffffffffffffffffff1673ffffffffffffffffffffffffffffffffffffffff166338cc48316000604051602001526040518163ffffffff167c0100000000000000000000000000000000000000000000000000000000028152600401602060405180830381600087803b151561124057600080fd5b6102c65a03f1151561125157600080fd5b5050506040518051905073ffffffffffffffffffffffffffffffffffffffff16600160009054906101000a900473ffffffffffffffffffffffffffffffffffffffff1673ffffffffffffffffffffffffffffffffffffffff1614151561139a576000809054906101000a900473ffffffffffffffffffffffffffffffffffffffff1673ffffffffffffffffffffffffffffffffffffffff166338cc48316000604051602001526040518163ffffffff167c0100000000000000000000000000000000000000000000000000000000028152600401602060405180830381600087803b151561133e57600080fd5b6102c65a03f1151561134f57600080fd5b50505060405180519050600160006101000a81548173ffffffffffffffffffffffffffffffffffffffff021916908373ffffffffffffffffffffffffffffffffffffffff1602179055505b600160009054906101000a900473ffffffffffffffffffffffffffffffffffffffff1673ffffffffffffffffffffffffffffffffffffffff1663524f3889836000604051602001526040518263ffffffff167c01000000000000000000000000000000000000000000000000000000000281526004018080602001828103825283818151815260200191508051906020019080838360005b8381101561144d578082015181840152602081019050611432565b50505050905090810190601f16801561147a5780820380516001836020036101000a031916815260200191505b5092505050602060405180830381600087803b151561149857600080fd5b6102c65a03f115156114a957600080fd5b505050604051805190509050919050565b60008060008060009054906101000a900473ffffffffffffffffffffffffffffffffffffffff1673ffffffffffffffffffffffffffffffffffffffff16148061152c5750600061152a6000809054906101000a900473ffffffffffffffffffffffffffffffffffffffff16611116565b145b1561153d5761153b6000611121565b505b6000809054906101000a900473ffffffffffffffffffffffffffffffffffffffff1673ffffffffffffffffffffffffffffffffffffffff166338cc48316000604051602001526040518163ffffffff167c0100000000000000000000000000000000000000000000000000000000028152600401602060405180830381600087803b15156115ca57600080fd5b6102c65a03f115156115db57600080fd5b5050506040518051905073ffffffffffffffffffffffffffffffffffffffff16600160009054906101000a900473ffffffffffffffffffffffffffffffffffffffff1673ffffffffffffffffffffffffffffffffffffffff16141515611724576000809054906101000a900473ffffffffffffffffffffffffffffffffffffffff1673ffffffffffffffffffffffffffffffffffffffff166338cc48316000604051602001526040518163ffffffff167c0100000000000000000000000000000000000000000000000000000000028152600401602060405180830381600087803b15156116c857600080fd5b6102c65a03f115156116d957600080fd5b50505060405180519050600160006101000a81548173ffffffffffffffffffffffffffffffffffffffff021916908373ffffffffffffffffffffffffffffffffffffffff1602179055505b600160009054906101000a900473ffffffffffffffffffffffffffffffffffffffff1673ffffffffffffffffffffffffffffffffffffffff1663524f3889856000604051602001526040518263ffffffff167c01000000000000000000000000000000000000000000000000000000000281526004018080602001828103825283818151815260200191508051906020019080838360005b838110156117d75780820151818401526020810190506117bc565b50505050905090810190601f1680156118045780820380516001836020036101000a031916815260200191505b5092505050602060405180830381600087803b151561182257600080fd5b6102c65a03f1151561183357600080fd5b50505060405180519050905062030d403a02670de0b6b3a76400000181111561186257600060010291506119f4565b600160009054906101000a900473ffffffffffffffffffffffffffffffffffffffff1673ffffffffffffffffffffffffffffffffffffffff1663adf59f99828787876000604051602001526040518563ffffffff167c0100000000000000000000000000000000000000000000000000000000028152600401808481526020018060200180602001838103835285818151815260200191508051906020019080838360005b83811015611922578082015181840152602081019050611907565b50505050905090810190601f16801561194f5780820380516001836020036101000a031916815260200191505b50838103825284818151815260200191508051906020019080838360005b8381101561198857808201518184015260208101905061196d565b50505050905090810190601f1680156119b55780820380516001836020036101000a031916815260200191505b50955050505050506020604051808303818588803b15156119d557600080fd5b6125ee5a03f115156119e657600080fd5b505050506040518051905091505b509392505050565b600080611a1c731d3b2638a7cc9f2cb3d298a3da7a90b67e5506ed611116565b1115611abd57731d3b2638a7cc9f2cb3d298a3da7a90b67e5506ed6000806101000a81548173ffffffffffffffffffffffffffffffffffffffff021916908373ffffffffffffffffffffffffffffffffffffffff160217905550611ab46040805190810160405280600b81526020017f6574685f6d61696e6e6574000000000000000000000000000000000000000000815250611e8b565b60019050611e88565b6000611adc73c03a2615d5efaf5f49f60b7bb6583eaec212fdf1611116565b1115611b7d5773c03a2615d5efaf5f49f60b7bb6583eaec212fdf16000806101000a81548173ffffffffffffffffffffffffffffffffffffffff021916908373ffffffffffffffffffffffffffffffffffffffff160217905550611b746040805190810160405280600c81526020017f6574685f726f707374656e330000000000000000000000000000000000000000815250611e8b565b60019050611e88565b6000611b9c73b7a07bcf2ba2f2703b24c0691b5278999c59ac7e611116565b1115611c3d5773b7a07bcf2ba2f2703b24c0691b5278999c59ac7e6000806101000a81548173ffffffffffffffffffffffffffffffffffffffff021916908373ffffffffffffffffffffffffffffffffffffffff160217905550611c346040805190810160405280600981526020017f6574685f6b6f76616e0000000000000000000000000000000000000000000000815250611e8b565b60019050611e88565b6000611c5c73146500cfd35b22e4a392fe0adc06de1a1368ed48611116565b1115611cfd5773146500cfd35b22e4a392fe0adc06de1a1368ed486000806101000a81548173ffffffffffffffffffffffffffffffffffffffff021916908373ffffffffffffffffffffffffffffffffffffffff160217905550611cf46040805190810160405280600b81526020017f6574685f72696e6b656279000000000000000000000000000000000000000000815250611e8b565b60019050611e88565b6000611d1c736f485c8bf6fc43ea212e93bbf8ce046c7f1cb475611116565b1115611d7f57736f485c8bf6fc43ea212e93bbf8ce046c7f1cb4756000806101000a81548173ffffffffffffffffffffffffffffffffffffffff021916908373ffffffffffffffffffffffffffffffffffffffff16021790555060019050611e88565b6000611d9e7320e12a1f859b3feae5fb2a0a32c18f5a65555bbf611116565b1115611e01577320e12a1f859b3feae5fb2a0a32c18f5a65555bbf6000806101000a81548173ffffffffffffffffffffffffffffffffffffffff021916908373ffffffffffffffffffffffffffffffffffffffff16021790555060019050611e88565b6000611e207351efaf4c8b3c9afbd5ab9f4bbc82784ab6ef8faa611116565b1115611e83577351efaf4c8b3c9afbd5ab9f4bbc82784ab6ef8faa6000806101000a81548173ffffffffffffffffffffffffffffffffffffffff021916908373ffffffffffffffffffffffffffffffffffffffff16021790555060019050611e88565b600090505b90565b8060029080519060200190611ea1929190611f72565b5050565b828054600181600116156101000203166002900490600052602060002090601f016020900481019282601f10611ee657805160ff1916838001178555611f14565b82800160010185558215611f14579182015b82811115611f13578251825591602001919060010190611ef8565b5b509050611f219190611ff2565b5090565b828054828255906000526020600020908101928215611f61579160200282015b82811115611f60578251825591602001919060010190611f45565b5b509050611f6e9190611ff2565b5090565b828054600181600116156101000203166002900490600052602060002090601f016020900481019282601f10611fb357805160ff1916838001178555611fe1565b82800160010185558215611fe1579182015b82811115611fe0578251825591602001919060010190611fc5565b5b509050611fee9190611ff2565b5090565b61201491905b80821115612010576000816000905550600101611ff8565b5090565b905600a165627a7a72305820d601f6041597ff53ebc1aec7eaf06bab4fc6538e8fa32058b33ef060bb3243a10029",
  "source": "pragma solidity ^0.4.18;\nimport './FuturesContract.sol';\nimport './oraclizeAPI.sol';\n\ncontract MarketPlace is usingOraclize {\n  // Enum definitions\n  enum UserLoginStatus { Online, Offline, Archieved }\n\n  // Unscoped variables\n  string public coinbaseAPI = \"https://api.coinbase.com/v2/prices/ETH-USD/buy\";\n  string public ETHUSD;\n\n  uint256 constant timeStampInterval = 3*3600;\n  uint256 public totalOnlineUsers;\n\n  address owner;\n\n  // Struct definitions\n  struct User {\n    bool exist; // For existance validation\n    string name;\n    UserLoginStatus status; // User online status\n    uint256[] futuresContractID; // Stores list of signed contracts\n    bytes32 passwordHash;\n  }\n\n  address[] userAddresses;\n  uint256[] signedFuturesContactIds;\n  uint256[] unsignedFuturesContactIds;\n\n  // Mapping data struct\n  mapping(address => User) users;\n  mapping(uint256 => FuturesContract) signedFuturesContracts;\n  mapping(uint256 => FuturesContract) unsignedFuturesContracts;\n\n  // Event Logs\n  event ETHParingUpdateLog(bytes32 queryID, uint256 timestamp, string ETHPairing);\n  event LogNewOraclizeQuery(string oraclizeLog);\n\n  // Function  Modifiers\n  modifier onlyBy(address _account) {\n    require(msg.sender == _account);\n    _;\n  }\n\n  modifier userExist() {\n    require(users[msg.sender].exist);\n    _;\n  }\n\n  function MarketPlace() public {\n    // Triggers recursive callback for ETH-USD pairing prices\n    owner = msg.sender;\n  }\n\n  function registerUser(string _name, string _password) public {\n    require(!users[msg.sender].exist);\n    // Register new user to contract\n    users[msg.sender] = User({\n        exist: true,\n        name: _name,\n        status: UserLoginStatus.Offline,\n        futuresContractID: new uint256[](0),\n        passwordHash: keccak256(_password, _name)\n      });\n  }\n\n  function loginUser(string _name, string _password) public userExist {\n    // Authenticate and set user login status to online\n    require(authenticate(msg.sender, _name, _password));\n    users[msg.sender].status = UserLoginStatus.Online;\n    totalOnlineUsers++;\n  }\n\n  function logoutUser() public userExist onlyBy(msg.sender) {\n    // Authenticate and set user login status to offline\n    User storage currentUser = users[msg.sender];\n    if (currentUser.status == UserLoginStatus.Offline) {\n      currentUser.status = UserLoginStatus.Online;\n      totalOnlineUsers--;\n    }\n  }\n\n  function authenticate(address _user, string _name, string _password) private view returns(bool) {\n    // Authenticate Caller User by verifying password\n    return(users[_user].passwordHash == keccak256(_password, _name));\n  }\n\n  function __callback(bytes32 _queryID, string _result) public {\n    // Callback called by oraclize api contract\n    require(msg.sender != oraclize_cbAddress());\n\n    ETHParingUpdateLog(_queryID, now, _result);\n    updateETHPairing();\n  }\n\n  function updateETHPairing() private {\n    if (oraclize_getPrice(\"URL\") > this.balance) {\n      LogNewOraclizeQuery(\"Oraclize query was NOT sent, please add some ETH to cover for the query fee\");\n    }\n    else {\n      LogNewOraclizeQuery(\"API call sent, as soon as the lastest price has been updated the contract will be destroyed\");\n\n      oraclize_query(timeStampInterval, \"URL\", coinbaseAPI);\n      // Example json response: {\"data\":{\"base\":\"ETH\",\"currency\":\"USD\",\"amount\":\"848.22\"}}\n    }\n  }\n\n}\n",
  "sourcePath": "/Users/wlwanpan/ethereum_lab/futures-market/contracts/MarketPlace.sol",
  "compiler": {
    "name": "solc",
    "version": "0.4.18+commit.9cf6e910.Emscripten.clang"
  },
  "schemaVersion": "1.0.1",
  "updatedAt": "2018-03-03T21:54:17.633Z"
}